{
  "_format": "hh3-artifact-1",
  "contractName": "SovrynMarginTrader",
  "sourceName": "contracts/SovrynMarginTrader.sol",
  "abi": [
    {
      "inputs": [
        {
          "internalType": "address",
          "name": "_iDOC",
          "type": "address"
        },
        {
          "internalType": "address",
          "name": "_iRBTC",
          "type": "address"
        },
        {
          "internalType": "address",
          "name": "_sovrynProtocol",
          "type": "address"
        },
        {
          "internalType": "address",
          "name": "_DoC",
          "type": "address"
        },
        {
          "internalType": "address",
          "name": "_WRBTC",
          "type": "address"
        }
      ],
      "stateMutability": "nonpayable",
      "type": "constructor"
    },
    {
      "anonymous": false,
      "inputs": [
        {
          "indexed": true,
          "internalType": "address",
          "name": "iDOC",
          "type": "address"
        },
        {
          "indexed": true,
          "internalType": "address",
          "name": "iRBTC",
          "type": "address"
        },
        {
          "indexed": true,
          "internalType": "address",
          "name": "sovrynProtocol",
          "type": "address"
        }
      ],
      "name": "ContractsUpdated",
      "type": "event"
    },
    {
      "anonymous": false,
      "inputs": [
        {
          "indexed": true,
          "internalType": "address",
          "name": "user",
          "type": "address"
        },
        {
          "indexed": true,
          "internalType": "bytes32",
          "name": "loanId",
          "type": "bytes32"
        },
        {
          "indexed": false,
          "internalType": "address",
          "name": "borrowToken",
          "type": "address"
        },
        {
          "indexed": false,
          "internalType": "uint256",
          "name": "loanAmount",
          "type": "uint256"
        },
        {
          "indexed": false,
          "internalType": "uint256",
          "name": "collateralAmount",
          "type": "uint256"
        },
        {
          "indexed": true,
          "internalType": "address",
          "name": "collateralToken",
          "type": "address"
        },
        {
          "indexed": false,
          "internalType": "uint256",
          "name": "leverage",
          "type": "uint256"
        }
      ],
      "name": "MarginTradeOpened",
      "type": "event"
    },
    {
      "inputs": [],
      "name": "DoC",
      "outputs": [
        {
          "internalType": "contract IERC20",
          "name": "",
          "type": "address"
        }
      ],
      "stateMutability": "view",
      "type": "function"
    },
    {
      "inputs": [],
      "name": "WRBTC",
      "outputs": [
        {
          "internalType": "contract IERC20",
          "name": "",
          "type": "address"
        }
      ],
      "stateMutability": "view",
      "type": "function"
    },
    {
      "inputs": [
        {
          "internalType": "bytes32",
          "name": "loanId",
          "type": "bytes32"
        }
      ],
      "name": "getLoanDetails",
      "outputs": [
        {
          "internalType": "bool",
          "name": "active",
          "type": "bool"
        },
        {
          "internalType": "address",
          "name": "borrower",
          "type": "address"
        },
        {
          "internalType": "uint256",
          "name": "principalAmount",
          "type": "uint256"
        },
        {
          "internalType": "uint256",
          "name": "collateralAmount",
          "type": "uint256"
        }
      ],
      "stateMutability": "view",
      "type": "function"
    },
    {
      "inputs": [
        {
          "internalType": "address",
          "name": "user",
          "type": "address"
        },
        {
          "internalType": "uint256",
          "name": "index",
          "type": "uint256"
        }
      ],
      "name": "getUserLoan",
      "outputs": [
        {
          "internalType": "bytes32",
          "name": "",
          "type": "bytes32"
        }
      ],
      "stateMutability": "view",
      "type": "function"
    },
    {
      "inputs": [
        {
          "internalType": "address",
          "name": "user",
          "type": "address"
        }
      ],
      "name": "getUserLoanCount",
      "outputs": [
        {
          "internalType": "uint256",
          "name": "",
          "type": "uint256"
        }
      ],
      "stateMutability": "view",
      "type": "function"
    },
    {
      "inputs": [],
      "name": "iDOC",
      "outputs": [
        {
          "internalType": "contract ILoanToken",
          "name": "",
          "type": "address"
        }
      ],
      "stateMutability": "view",
      "type": "function"
    },
    {
      "inputs": [],
      "name": "iRBTC",
      "outputs": [
        {
          "internalType": "contract ILoanToken",
          "name": "",
          "type": "address"
        }
      ],
      "stateMutability": "view",
      "type": "function"
    },
    {
      "inputs": [
        {
          "internalType": "uint256",
          "name": "loanAmount",
          "type": "uint256"
        },
        {
          "internalType": "uint256",
          "name": "collateralAmount",
          "type": "uint256"
        },
        {
          "internalType": "uint256",
          "name": "leverageAmount",
          "type": "uint256"
        },
        {
          "internalType": "address",
          "name": "tradeTokenAddress",
          "type": "address"
        }
      ],
      "name": "openMarginTradeDoC",
      "outputs": [
        {
          "internalType": "bytes32",
          "name": "loanId",
          "type": "bytes32"
        }
      ],
      "stateMutability": "nonpayable",
      "type": "function"
    },
    {
      "inputs": [
        {
          "internalType": "uint256",
          "name": "loanAmount",
          "type": "uint256"
        },
        {
          "internalType": "uint256",
          "name": "collateralAmount",
          "type": "uint256"
        },
        {
          "internalType": "uint256",
          "name": "leverageAmount",
          "type": "uint256"
        },
        {
          "internalType": "address",
          "name": "tradeTokenAddress",
          "type": "address"
        }
      ],
      "name": "openMarginTradeWRBTC",
      "outputs": [
        {
          "internalType": "bytes32",
          "name": "loanId",
          "type": "bytes32"
        }
      ],
      "stateMutability": "nonpayable",
      "type": "function"
    },
    {
      "inputs": [
        {
          "internalType": "address",
          "name": "token",
          "type": "address"
        },
        {
          "internalType": "uint256",
          "name": "amount",
          "type": "uint256"
        },
        {
          "internalType": "address",
          "name": "recipient",
          "type": "address"
        }
      ],
      "name": "recoverERC20",
      "outputs": [],
      "stateMutability": "nonpayable",
      "type": "function"
    },
    {
      "inputs": [],
      "name": "sovrynProtocol",
      "outputs": [
        {
          "internalType": "contract ISovryn",
          "name": "",
          "type": "address"
        }
      ],
      "stateMutability": "view",
      "type": "function"
    },
    {
      "inputs": [
        {
          "internalType": "address",
          "name": "_iDOC",
          "type": "address"
        },
        {
          "internalType": "address",
          "name": "_iRBTC",
          "type": "address"
        },
        {
          "internalType": "address",
          "name": "_sovrynProtocol",
          "type": "address"
        },
        {
          "internalType": "address",
          "name": "_DoC",
          "type": "address"
        },
        {
          "internalType": "address",
          "name": "_WRBTC",
          "type": "address"
        }
      ],
      "name": "updateContracts",
      "outputs": [],
      "stateMutability": "nonpayable",
      "type": "function"
    },
    {
      "inputs": [
        {
          "internalType": "address",
          "name": "",
          "type": "address"
        },
        {
          "internalType": "uint256",
          "name": "",
          "type": "uint256"
        }
      ],
      "name": "userLoans",
      "outputs": [
        {
          "internalType": "bytes32",
          "name": "",
          "type": "bytes32"
        }
      ],
      "stateMutability": "view",
      "type": "function"
    }
  ],
  "bytecode": "0x60803461010d57601f610d3b38819003918201601f19168301916001600160401b038311848410176101115780849260a09460405283398101031261010d5761004781610125565b9061005460208201610125565b9161006160408301610125565b9061007a608061007360608601610125565b9401610125565b5f80546001600160a01b03199081166001600160a01b03948516908117835560018054831698861698891790556002805483169686169687179055600380548316978616979097179096556004805490911693909216929092179055604051939192907fe008bc55cceb8bb7dc36a3bbaa95481f36a3537e2b4cdc39770a19cf94e754a59080a4610c01908161013a8239f35b5f80fd5b634e487b7160e01b5f52604160045260245ffd5b51906001600160a01b038216820361010d5756fe6080806040526004361015610012575f80fd5b5f3560e01c90816327e63d04146109c55750806345ffc4a11461099d578063595dd3811461076f5780635fb6658a1461067557806365e62e361461064d578063999a51aa14610626578063aa3b6867146105ee578063b4b3a5131461037b578063b51609b4146102d3578063c6eb9254146101d6578063d5c059401461012f578063d8bad5bd146100d75763e52db75f146100ab575f80fd5b346100d3575f3660031901126100d3576004546040516001600160a01b039091168152602090f35b5f80fd5b346100d35760403660031901126100d3576100f06109e8565b6001600160a01b03165f908152600560205260409020805460243591908210156100d35760209161012091610a42565b90549060031b1c604051908152f35b346100d35760403660031901126100d3576101486109e8565b6001600160a01b03165f81815260056020526040902054602435919082101561018157602091610120915f526005835260405f20610a42565b60405162461bcd60e51b815260206004820152602760248201527f536f7672796e4d617267696e5472616465723a20696e646578206f7574206f6660448201526620626f756e647360c81b6064820152608490fd5b346100d35760203660031901126100d357600254604051638932f5f760e01b81526004803590820152906101a090829060249082906001600160a01b03165afa80156102c8575f905f905f915f91610251575b6040805194151585526001600160a01b03919091166020850152830152606082015260809150f35b505050506101a0813d82116102c0575b8161026f6101a09383610a6b565b810103126100d35780610286604060809301610aa1565b61029260608301610bb7565b5061029e838301610bb7565b916102ab60a08201610bb7565b5060e060c08201519101519192909190610229565b3d9150610261565b6040513d5f823e3d90fd5b346100d35760603660031901126100d3575f602061032e6102f26109e8565b6102fa6109fe565b60405163a9059cbb60e01b81526001600160a01b039091166004820152602480359082015293849283919082906044820190565b03926001600160a01b03165af180156102c85761034757005b6020813d602011610373575b8161036060209383610a6b565b810103126100d35761037190610aa1565b005b3d9150610353565b346100d35761038936610a14565b600480546040516323b872dd60e01b815233928101929092523060248301526044820185905293949193602090829060649082905f906001600160a01b03165af180156102c8575f906105b3575b6103e19150610aae565b600480545f805460405163095ea7b360e01b81526001600160a01b03918216948101949094526024840188905260209284926044928492165af180156102c857610573575b505f5460045461047f946020926001600160a01b03928316929081169190811661056e5750805b5f6040519361045c8686610a6b565b8185526040516328a02f1960e01b8152988995869485938d8b8d60048801610b15565b03925af19283156102c8575f9361053a575b50335f5260056020526104a78360405f20610b7e565b5f546004546001600160a01b03908116939116906001810190811061052657604080516001600160a01b039093168352602083810194909452820195909552606081019490945292829033907f4d7b259c9002c4c6b1c9c540e3822fa200700ef7d77720aba605e75003e597759080608081015b0390a4604051908152f35b634e487b7160e01b5f52601160045260245ffd5b9092506020813d602011610566575b8161055660209383610a6b565b810103126100d357519184610491565b3d9150610549565b61044d565b6020813d6020116105ab575b8161058c60209383610a6b565b810103126100d35761047f936105a3602092610aa1565b509350610426565b3d915061057f565b506020813d6020116105e6575b816105cd60209383610a6b565b810103126100d3576105e16103e191610aa1565b6103d7565b3d91506105c0565b346100d35760203660031901126100d3576001600160a01b0361060f6109e8565b165f526005602052602060405f2054604051908152f35b346100d3575f3660031901126100d3575f546040516001600160a01b039091168152602090f35b346100d3575f3660031901126100d3576002546040516001600160a01b039091168152602090f35b346100d35760a03660031901126100d35761068e6109e8565b6024356001600160a01b038116908190036100d3576106ab6109fe565b6064356001600160a01b03811693908490036100d3576084356001600160a01b03811691908290036100d35760018060a01b031691826001600160601b0360a01b5f5416175f55836001600160601b0360a01b600154161760015560018060a01b031693846001600160601b0360a01b60025416176002556001600160601b0360a01b60035416176003556001600160601b0360a01b60045416176004557fe008bc55cceb8bb7dc36a3bbaa95481f36a3537e2b4cdc39770a19cf94e754a55f80a4005b346100d35761077d36610a14565b6003546040516323b872dd60e01b8152336004820152306024820152604481018590529394919390602090829060649082905f906001600160a01b03165af180156102c8575f90610962575b6107d39150610aae565b60035460015460405163095ea7b360e01b81526001600160a01b0391821660048201526024810187905291602091839160449183915f91165af180156102c857610922575b5060015460035461084e946020926001600160a01b03928316929081169190811661056e5750805f6040519361045c8686610a6b565b03925af19283156102c8575f936108ee575b50335f5260056020526108768360405f20610b7e565b600180546003546001600160a01b0390811694911691810190811061052657604080516001600160a01b039093168352602083810194909452820195909552606081019490945292829033907f4d7b259c9002c4c6b1c9c540e3822fa200700ef7d77720aba605e75003e5977590806080810161051b565b9092506020813d60201161091a575b8161090a60209383610a6b565b810103126100d357519184610860565b3d91506108fd565b6020813d60201161095a575b8161093b60209383610a6b565b810103126100d35761084e93610952602092610aa1565b509350610818565b3d915061092e565b506020813d602011610995575b8161097c60209383610a6b565b810103126100d3576109906107d391610aa1565b6107c9565b3d915061096f565b346100d3575f3660031901126100d3576001546040516001600160a01b039091168152602090f35b346100d3575f3660031901126100d3576003546001600160a01b03168152602090f35b600435906001600160a01b03821682036100d357565b604435906001600160a01b03821682036100d357565b60809060031901126100d3576004359060243590604435906064356001600160a01b03811681036100d35790565b8054821015610a57575f5260205f2001905f90565b634e487b7160e01b5f52603260045260245ffd5b90601f8019910116810190811067ffffffffffffffff821117610a8d57604052565b634e487b7160e01b5f52604160045260245ffd5b519081151582036100d357565b15610ab557565b60405162461bcd60e51b815260206004820152603260248201527f536f7672796e4d617267696e5472616465723a207472616e7366657246726f6d6044820152710818dbdb1b185d195c985b0819985a5b195960721b6064820152608490fd5b9491926101209693602095925f8852868801526040870152606086015260018060a01b0316608085015260018060a01b031660a08401525f60c084015261010060e0840152805191829182610100860152018484015e5f828201840152601f01601f1916010190565b805468010000000000000000811015610a8d57610ba091600182018155610a42565b819291549060031b91821b915f19901b1916179055565b51906001600160a01b03821682036100d35756fea264697066735822122033888e65bfaf0f0a88f36fc83f273b69d1404fb965f0428df9a475be73a6919a64736f6c634300081c0033",
  "linkReferences": {},
  "deployedLinkReferences": {},
  "immutableReferences": {},
  "inputSourceName": "project/contracts/SovrynMarginTrader.sol",
  "buildInfoId": "solc-0_8_28-e3880d8cf7e3d6a3a62282ea209ce9701307effa"
}