{
  "_format": "hh3-artifact-1",
  "contractName": "SovrynSwapper",
  "sourceName": "contracts/SovrynSwapper.sol",
  "abi": [
    {
      "anonymous": false,
      "inputs": [
        {
          "indexed": true,
          "internalType": "address",
          "name": "user",
          "type": "address"
        },
        {
          "indexed": true,
          "internalType": "address",
          "name": "tokenIn",
          "type": "address"
        },
        {
          "indexed": true,
          "internalType": "address",
          "name": "tokenOut",
          "type": "address"
        },
        {
          "indexed": false,
          "internalType": "uint256",
          "name": "amountIn",
          "type": "uint256"
        },
        {
          "indexed": false,
          "internalType": "uint256",
          "name": "amountOut",
          "type": "uint256"
        }
      ],
      "name": "SwapExecuted",
      "type": "event"
    },
    {
      "inputs": [],
      "name": "SOVRYN_PROTOCOL",
      "outputs": [
        {
          "internalType": "address",
          "name": "",
          "type": "address"
        }
      ],
      "stateMutability": "view",
      "type": "function"
    },
    {
      "inputs": [
        {
          "internalType": "address",
          "name": "tokenIn",
          "type": "address"
        },
        {
          "internalType": "address",
          "name": "tokenOut",
          "type": "address"
        },
        {
          "internalType": "uint256",
          "name": "amountIn",
          "type": "uint256"
        }
      ],
      "name": "getAmountOut",
      "outputs": [
        {
          "internalType": "uint256",
          "name": "",
          "type": "uint256"
        }
      ],
      "stateMutability": "view",
      "type": "function"
    },
    {
      "inputs": [
        {
          "internalType": "address",
          "name": "tokenIn",
          "type": "address"
        },
        {
          "internalType": "address",
          "name": "tokenOut",
          "type": "address"
        },
        {
          "internalType": "uint256",
          "name": "amountIn",
          "type": "uint256"
        },
        {
          "internalType": "uint256",
          "name": "minAmountOut",
          "type": "uint256"
        }
      ],
      "name": "swap",
      "outputs": [
        {
          "internalType": "uint256",
          "name": "amountOut",
          "type": "uint256"
        }
      ],
      "stateMutability": "nonpayable",
      "type": "function"
    }
  ],
  "bytecode": "0x608080604052346015576104d7908161001a8239f35b5f80fdfe6080806040526004361015610012575f80fd5b5f3560e01c908163034076ee146103fb575080634aa06652146103395763fe0291561461003d575f80fd5b3461023757608036600319011261023757610056610427565b61005e61043d565b604435916064359083156102ea576040516323b872dd60e01b8152336004820152306024820152604481018590526001600160a01b0391909116906020816064815f865af1908115610243575f916102cb575b501561027b5760405163095ea7b360e01b81527325380305f223b32fdb844152abd2e82bc5ad99c36004820152602481018590526020816044815f865af180156102435761024e575b506040519263038c86d560e61b845281600485015260018060a01b0316918260248501523360448501523060648501528460848501525f60a48501528060c485015261010060e48501525f610104850152604084610124815f7325380305f223b32fdb844152abd2e82bc5ad99c35af1938415610243575f9461020b575b5083106101bb5760209360405190815283858201527f764f0dc063c06f32d89a3f3af80c0db4be8a090901f589a478b447e0a51f09f160403392a4604051908152f35b60405162461bcd60e51b815260206004820152602260248201527f536f7672796e537761707065723a20696e73756666696369656e74206f7574706044820152611d5d60f21b6064820152608490fd5b9093506040813d60401161023b575b8161022760409383610453565b810103126102375751925f610178565b5f80fd5b3d915061021a565b6040513d5f823e3d90fd5b61026f9060203d602011610274575b6102678183610453565b810190610489565b6100fa565b503d61025d565b60405162461bcd60e51b815260206004820152602260248201527f536f7672796e537761707065723a207472616e7366657246726f6d206661696c604482015261195960f21b6064820152608490fd5b6102e4915060203d602011610274576102678183610453565b5f6100b1565b60405162461bcd60e51b815260206004820152602160248201527f536f7672796e537761707065723a20616d6f756e74206d757374206265203e206044820152600360fc1b6064820152608490fd5b34610237576060366003190112610237576103976020610357610427565b61035f61043d565b604051631a51577760e21b81526001600160a01b03928316600482015291166024820152604480359082015291829081906064820190565b03817325380305f223b32fdb844152abd2e82bc5ad99c35afa8015610243575f906103c8575b602090604051908152f35b506020813d6020116103f3575b816103e260209383610453565b8101031261023757602090516103bd565b3d91506103d5565b34610237575f36600319011261023757807325380305f223b32fdb844152abd2e82bc5ad99c360209252f35b600435906001600160a01b038216820361023757565b602435906001600160a01b038216820361023757565b90601f8019910116810190811067ffffffffffffffff82111761047557604052565b634e487b7160e01b5f52604160045260245ffd5b9081602091031261023757518015158103610237579056fea2646970667358221220ee2e4350d363e6dce17975d7c2ab9ec76cf8df0e9e2fb8060bdaf913a81cefbb64736f6c634300081c0033",
  "linkReferences": {},
  "deployedLinkReferences": {},
  "immutableReferences": {},
  "inputSourceName": "project/contracts/SovrynSwapper.sol",
  "buildInfoId": "solc-0_8_28-e3880d8cf7e3d6a3a62282ea209ce9701307effa"
}